:020000020000FC
:10000000FFC090E083E000C00197F1F708950F93DF
:1000100004E028D0F6DF1F932A98606C062F06D0E4
:10002000072F04D02A9A1F910F9108950F931F93C1
:100030002F933F934F9311E0202F2123203021F065
:10004000E0DF42E045B903C0DCDF40E045B9110F15
:10005000D8DF289A103081F74F913F912F911F914F
:100060000F9108951F932A98E1DF2A9A1F91C9DF03
:1000700008958F9380EC682F70E0C9DF8395803DF1
:06008000D1F78F910895F5
:1002000000E00FBF0FEF0DBF08E00EBF07E004B91D
:1002100005E005B9F6DE04E425DF0FE823DF60EC36
:1002200071E3F5DE61EC70E0F2DE62EC77E0EFDEC8
:02023000FFCFFE
:00000001FF
